:020000043400C6
:10040000000010348D1701347D5200348B520034BB
:10041000955200349D520034A5520034AD52003440
:10042000000000000000000000000000B552003491
:10043000C352003400000000CB520034D5520034C7
:1004400025530034000000002D5300343553003490
:100450003D530034455300344D530034E917013403
:1004600055530034000000005D53003465530034E0
:100470006D530034755300347D5300340000000088
:100480008553003400000000E91701348D53003417
:1004900017530034955300349D530034A553003452
:1004A000AD530034B5530034BD530034C55300344C
:1004B000CD530034D5530034DD530034E5530034BC
:1004C000ED53003409530034F5530034FD53003428
:1004D000055400340D540034155400341D540034B8
:1004E00025540034000000002D54003435540034ED
:1004F0003D540034455400344D54003455540034B8
:100500005D54003400000000000000000000000006
:1005100065540034ED0003346D54003475540034D8
:100520007D540034855400348D5400349554003487
:100530009D540034A5540034AD540034B5540034F7
:10054000BD540034C5540034CD540034D554003467
:10055000DD540034E5540034ED540034F5540034D7
:10056000FD540034055500340D5500341555003444
:100570001D550034255500342D55003435550034B3
:100580003D550034455500344D5500345555003423
:10059000F95200345D550034E95200346555003499
:1005A0006D550034755500347D5500348555003443
:1005B0008D550034955500349D550034A5550034B3
:1005C000AD550034B5550034BD550034C555003423
:1005D000CD550034D5550034DD550034E555003493
:1005E000ED550034F5550034FD5500340556003402
:1005F0000D560034155600341D560034255600346F
:100600002D56003435560034E91701343D56003478
:10061000455600344D560034555600345D5600346E
:10062000655600346D560034755600347D560034DE
:10063000E9170134855600348D5600349556003440
:100640009D560034A5560034AD560034B5560034DE
:10065000BD560034C5560034CD560034D55600344E
:10066000DD560034E5560034ED560034F5560034BE
:10067000FD560034055700340D570034155700342B
:100680001D570034255700342D570034355700349A
:100690003D570034455700344D570034555700340A
:1006A000E91701345D570034655700346D57003445
:1006B000755700347D570034855700348D5700340A
:1006C000955700349D570034A5570034AD5700347A
:1006D000B5570034BD570034C5570034CD570034EA
:1006E000D5570034DD570034E5570034ED5700345A
:1006F000F5570034FD570034055800340D580034C8
:10070000155800341D580034255800342D58003435
:10071000355800343D580034455800344D580034A5
:10072000555800345D580034655800346D58003415
:10073000755800347D580034855800348D58003485
:0C07400000000000955800349D58003463
:1007500010B5054C237833B9044B13B10448AFF3FB
:1007600000800123237010BD407707340000000093
:100770000456033408B5034B1BB103490348AFF3D8
:10078000008008BD0000000044770734045603349D
:10079000034613F8012B002AFBD1181A01387047C1
:1007A00053B94AB9002908BF00281CBF4FF0FF31D8
:1007B0004FF0FF3000F0B0B9ADF1080C6DE904CE98
:1007C00000F006F8DDF804E0DDE9022304B070472C
:1007D0002DE9F04F099D884604468E46002B4AD1EC
:1007E0008A4217465FD9B2FA82F64EB1C6F12003AB
:1007F00001FA06FEB740B44020FA03F343EA0E0EB6
:100800004FEA17481FFA87FC230CBEFBF8F108FBE0
:1008100011EE01FB0CF243EA0E439A4207D9FB1892
:1008200001F1FF3002D29A4200F2548101469B1A34
:10083000A2B2B3FBF8F008FB103300FB0CFC42EA59
:10084000034294450BD9BA1800F1FF332CBF0124A1
:100850000024944502D9002C00F03F81184640EA5C
:100860000140A2EB0C0200211DB1F2400023C5E9BA
:100870000023BDE8F08F8B4205D90DB1C5E9000119
:1008800000210846F5E7B3FA83F100294ED143452C
:10089000C0F01281824240F20F810846002DE8D05C
:1008A000C5E9004EE5E7002A00F0AC80B2FA82F616
:1008B000002E40F0BB808B1A4FEA124EBCB20121D1
:1008C000020C80B2B3FBFEFC0EFB1C3342EA034376
:1008D00004FB0CF29A420ED9FB180CF1FF382CBF26
:1008E0004FF001094FF000099A4203D9B9F1000F06
:1008F00000F0EC80C4469B1AB3FBFEF80EFB1833E5
:1009000004FB08F440EA034294420BD9BA1808F1F8
:10091000FF332CBF01200020944202D9002800F0B0
:10092000D1809846121B48EA0C409DE7C1F1200691
:100930008B4008FA01F400FA01F922FA06F728FAC6
:1009400006F88A401F4320FA06F3380C23431FFAA7
:1009500087FC1C0CB8FBF0FE00FB1E8844EA084430
:100960000EFB0CF8A0450ED93C190EF1FF3A2CBF36
:100970004FF0010B4FF0000BA04503D9BBF1000F66
:1009800000F0B880D646A4EB08041FFA83F8B4FB45
:10099000F0F300FB134403FB0CFC48EA0444A445B9
:1009A0000ED93C1903F1FF302CBF4FF001084FF076
:1009B0000008A44503D9B8F1000F00F09F8003465A
:1009C00043EA0E40A4EB0C04A0FB02EC6445734622
:1009D000E04602D307D1F14505D2BEEB02036CEB32
:1009E000070C0138E0465DB1B9EB030264EB080483
:1009F00004FA06F622FA01F3CC401E43C5E900646E
:100A0000002136E7B1FBF2FC010C144680B2964699
:100A100041EA08412026904640EA01431046B1FBD6
:100A2000F2F1A3EB080341EA0C414BE7B740C6F1F2
:100A3000200301FA06F221FA03F84FEA174E20FAD2
:100A400003F3BCB2B0401343020C190C80B2B8FBE4
:100A5000FEF90EFB198841EA084109FB04F88845B4
:100A600051D9791809F1FF3C2CBF4FF0010A4FF022
:100A7000000A884502D9BAF1000F31D0A1EB080174
:100A8000B1FBFEF909FB04F80EFB19119BB243EA16
:100A90000143434535D2FB1809F1FF312CBF4FF01C
:100AA000010A4FF0000A4345BBD2BAF1000FB8D19A
:100AB000A9F102013B44B4E7841A68EB0302012068
:100AC0009646EBE63A44A8F102082BE7ACF1020C9B
:100AD0003B4410E702393B44A9E63A440238BEE6FB
:100AE000A7EB0808A9F1020C4144B1FBFEF909FB90
:100AF00004F8C9E7AEF1020E3C4444E7023B3C4433
:100B00005EE749468DE7A1EB0801CC46B1FBFEF953
:100B100009FB04F8B8E700BF704700BF80B485B098
:100B200000AF7860074A7B68C2F8503A054BD3F8AB
:100B30005032FB60FB6800BF1437BD465DF8047B94
:100B4000704700BF0080025680B485B000AF786067
:100B5000074A7B68C2F8543A054BD3F85432FB601D
:100B6000FB6800BF1437BD465DF8047B704700BFCB
:100B70000080025680B485B000AF7860074A7B6879
:100B8000C2F85C3A054BD3F85C32FB60FB6800BFEF
:100B90001437BD465DF8047B704700BF00800256E5
:100BA00080B485B000AF7860074A7B68C2F86C3AC1
:100BB000054BD3F86C32FB60FB6800BF1437BD46B1
:100BC0005DF8047B704700BF0080025680B594B08A
:100BD00000AF786039600023FB647B68002B03D092
:100BE0006FF00103FB64DEE03B689B68202B03D0C1
:100BF0003B689B68082B03D16FF00A03FB64D2E0CB
:100C00006B4BDB69002B0FD0694B5A683B685B6804
:100C10009A4205D1664B9A683B689B689A4203D01A
:100C20006FF00A03FB64BEE0624A7B685B01134419
:100C300018331B68002B03D06FF00203FB64B2E093
:100C40003B681A685B497B685B010B441A603B6830
:100C50005A6858497B685B010B4404331A603B684F
:100C60009A6854497B685B010B4408331A603B68FF
:100C7000DA6850497B685B010B4410331A603B68AB
:100C80001A694C497B685B010B440C331A60484B72
:100C9000DB69002B07D101F0FFF90346002B02D0DE
:100CA0006FF00403FB64FB6C002B7CD1424B434A86
:100CB0001A603F4BDB69002B0BD13B685B68194620
:100CC0003D4801F0F3FD0346002B02D06FF008030E
:100CD000FB64FB6C002B02D1374801F02DFAFB6C52
:100CE000002B60D13B685B68FB6000233B61002305
:100CF000FB613B68DB68012B02D14FF4805300E0BD
:100D00000023BB613B689B68182B06D1C0237B6125
:100D10004023FB6220233B6305E080237B6120238B
:100D2000FB6210233B634FF400537B6200233B6262
:100D30000023BB6203237B6307F10C0319461E48A3
:100D400000F010F90346002B03D06FF00303FB649F
:100D500029E0174BDB69002B02D04FF4807300E0D1
:100D60000023BB630123FB6300237B643B685B6858
:100D70003B643B681B69BB64114B1B681B68114AD1
:100D8000126807F13801104698470346002B03DA32
:100D90006FF00403FB6406E0064A7B685B011344C2
:100DA000183302221A60FB6C18465037BD4680BDCE
:100DB000F8260534D82605346477073404580052E1
:100DC000607707345C77073480B586B000AFF86091
:100DD000B9607A6000237B61FB68002B02D1BB689D
:100DE000002B03D16FF001037B613CE0204AFB68DC
:100DF0005B01134418331B68022B03D06FF002030E
:100E00007B6130E01A4AFB685B01134408331B68BE
:100E1000102B03D17B685B087B8202E07B689B0818
:100E20007B827B8A1A46B968124827F049F9034643
:100E3000002B03D06FF003037B6114E00E4B1B68A3
:100E4000DB680E4A1268104698470346002B03DA07
:100E50006FF004037B6106E0054AFB685B01134405
:100E6000183301221A607B6918461837BD4680BDC9
:100E7000D826053464770734607707345C77073405
:100E800080B584B000AF78600023FB607B68002BE6
:100E900003D06FF00103FB603BE0204A7B685B01FD
:100EA000134418331B68022B33D01C4A7B685B0148
:100EB000134418331B68012B0BD0184A7B685B0165
:100EC000134418331B68032B03D06FF00203FB603D
:100ED0001FE0134B1B689B69124A126801211046E0
:100EE00098470346002B03DA6FF00403FB6010E021
:100EF0000D4827F067F80346002B03D06FF003037B
:100F0000FB6006E0054A7B685B011344183302224C
:100F10001A60FB6818461037BD4680BDD8260534D8
:100F2000607707345C7707346477073480B582B024
:100F300000AF78603960054BD3F88030184611F067
:100F4000F3FD00BF0837BD4680BD00BF647707349E
:100F500080B483B000AF786000BF0C37BD465DF849
:100F6000047B704780B584B000AF7860396000239F
:100F7000FB733B68DA687B68DA623B681A687B68F7
:100F80001A623B685A687B685A607B6800229A61E3
:100F90007B6800225A643B689A687B689A647B6825
:100FA0000022DA643B681A697B681A653B685A69F3
:100FB0007B689A603B689A697B685A617B6801220A
:100FC000DA613B68DA697B68DA607B6800221A6361
:100FD0007B6800225A637B6800225A627B684FF06C
:100FE00000621A617B6800229A627B68002283F8A3
:100FF00038203B681A6A7B685A653B685A6A7B6886
:101000009A657B684FF48032DA657B6800221A6645
:101010007B684FF480225A667B6800229A663B68A0
:101020009B68182B03D17B688022DA6602E07B681C
:101030004022DA667B6802221A673B689A6A7B68FC
:101040005A67786826F07CFA0346002B01D001230A
:10105000FB73FB7B18461037BD4680BD80B582B060
:1010600000AF7860002003F0F3FC00BF0837BD46F6
:1010700080BD80B582B000AF7860002003F008FD2D
:1010800000BF0837BD4680BD80B582B000AF786034
:101090007B681B68064A934203D10020FFF758FF84
:1010A00002E0002003F014FD00BF0837BD4680BDFC
:1010B0000458005280B598B000AF786039600023C2
:1010C000FB657B68012B03D96FF00103FB6554E2DC
:1010D00097497A681346DB0013449B000B441C338A
:1010E0001B68002B03D06FF00203FB6545E23B68F1
:1010F0009B68102B03D06FF00A03FB653DE23B6851
:10110000DB68012B03D06FF00A03FB6535E27B68D7
:10111000002B13D1874B9B69002B0FD0854B5A684E
:101120003B685B689A4205D1824B9A683B689B6832
:101130009A4203D06FF00A03FB651EE23B68196810
:101140007B487A681346DB0013449B000344196014
:101150003B68D96876487A681346DB0013449B00E5
:1011600003440C3319603B68596871487A68134628
:10117000DB0013449B000344043319603B68996807
:101180006B487A681346DB0013449B000344083322
:1011900019603B68196966487A681346DB00134496
:1011A0009B000344183319607B68002B40F0AF802C
:1011B000604B9B69002B07D100F06EFF0346002BAC
:1011C00002D06FF00403FB65FB6D002B40F0D5816E
:1011D000594B5A4A1A605A4B5A4A1A60554B9B69E6
:1011E000002B0BD13B685B681946534801F05EFB4E
:1011F0000346002B02D06FF00803FB65FB6D002B4C
:1012000009D14D4800F098FF4A4B9B69002B02D151
:101210004B4800F091FFFB6D002B40F0AE8144493C
:101220007A681346DB0013449B000B4404331B68AD
:10123000BB600323FB600023BB614FF480537B61E1
:1012400080233B612023BB621023FB624FF40053D9
:101250003B620123FB6100237B6201233B6307F1B7
:10126000080319463448FFF77DFE0346002B03D0E0
:101270006FF00303FB6518E02E4B9B69002B14D124
:101280000023FB600023FB6103233B63294B1022F7
:101290009A6007F1080319462948FFF763FE0346E1
:1012A000002B02D06FF00303FB65FB6D002B40F0B9
:1012B00064814FF48073BB641E4B9B69002B14BF89
:1012C00001230023DBB2FB6400237B653B685B6882
:1012D0003B653B681B69BB651B4B1B681B681B4A56
:1012E000126807F14801104698470346002B03DABD
:1012F0006FF00403FB6540E10D497A681346DB009B
:1013000013449B000B441C3302221A6035E1104B3E
:10131000104A1A603B685B6819460D4801F0EEF907
:101320000346002B18D06FF00803FB6525E100BFD2
:10133000F8260534D8260534FC77073424580052A3
:101340006477073404580052607707345C770734B9
:1013500094780734805002528A4801F0F7F83B68CD
:101360005B68B3F5FA5F37D03B685B6842F61132D1
:1013700093422ED03B685B68B3F57A5F27D03B6819
:101380005B6845F2226293421FD03B685B68B3F50D
:10139000FA4F18D03B685B684AF64442934210D03B
:1013A0003B685B684BF68032934208D03B685B68D1
:1013B000754A934201D1122310E018230EE00A234C
:1013C0000CE00A230AE00A2308E0022306E00223D5
:1013D00004E06FF0050301E06FF003037B633B68FB
:1013E0005B68B3F5FA5F36D03B685B6842F6113252
:1013F00093422ED03B685B68B3F57A5F27D03B6899
:101400005B6845F2226293421FD03B685B68B3F58C
:10141000FA4F18D03B685B684AF64442934210D0BA
:101420003B685B684BF68032934208D03B685B6850
:10143000554A934201D108230EE004230CE0102307
:101440000AE0102308E0102306E0202304E0202314
:1014500002E0402300E04023BB634023FB633B6882
:101460005B68B3F5FA5F36D03B685B6842F61132D1
:1014700093422ED03B685B68B3F57A5F27D03B6818
:101480005B6845F2226293421FD03B685B68B3F50C
:10149000FA4F18D03B685B684AF64442934210D03A
:1014A0003B685B684BF68032934208D03B685B68D0
:1014B000354A934201D102230EE001230CE00223BE
:1014C0000AE0012308E0022306E0012304E00223EE
:1014D00002E0012300E002233B643B685B68B3F554
:1014E000FA5F2FD03B685B6842F61132934227D0F7
:1014F0003B685B68B3F57A5F20D03B685B6845F278
:101500002262934218D03B685B68B3F5FA4F11D062
:101510003B685B684AF64442934209D03B685B688B
:101520004BF68032934201D108230CE010230AE0ED
:10153000042308E00C2306E0042304E00C2302E06B
:10154000042300E00C237B6407F1340319460D48A3
:1015500000F086FC0346002B02D06FF00303FB650E
:10156000FB6D002B09D109497A681346DB0013444F
:101570009B000B441C3302221A60FB6D1846603737
:10158000BD4680BD9478073400770100F826053405
:1015900080B58AB000AFF860B9607A6000237B62E2
:1015A000FB68012B02D8BB68002B03D16FF001034D
:1015B0007B628BE0FB68012B08D17B6840F28122C3
:1015C000934203D96FF001037B627FE04249FA68DE
:1015D0001346DB0013449B000B441C331B68022B97
:1015E00003D06FF002037B6270E0FB68002B38D100
:1015F0003A4B9B69012B13D0384B9B69032B0FD0BF
:1016000000233B8407F120014FF47A73022234480F
:1016100026F0D2FB0346002B02D06FF003037B625F
:101620007B6A002B45D12F4B1B68DB682E4A126862
:10163000104698470346002B03DA6FF004037B62E1
:1016400037E07B689BB25B089BB21A46B9682748B3
:1016500026F038FE0346002B2BD06FF003037B628D
:1016600027E01D49FA681346DB0013449B000B4436
:101670001033BA681A601849FA681346DB0013443D
:101680009B000B4414337A681A60194B7B617B68AA
:101690005B00BB6100233B7707F114031A46154931
:1016A000154816F019F90346002B02D06FF003031A
:1016B0007B627B6A002B09D10749FA681346DB007D
:1016C00013449B000B441C3301221A607B6A1846AA
:1016D0002837BD4680BD00BFF8260534D82605341E
:1016E00064770734607707345C770734FC77073416
:1016F00020800534887A07349478073480B584B024
:1017000000AF78600023FB607B68012B03D96FF08A
:101710000103FB6056E02E497A681346DB00134450
:101720009B000B441C331B68022B4BD028497A6862
:101730001346DB0013449B000B441C331B68012B36
:101740000ED023497A681346DB0013449B000B44F8
:101750001C331B68032B03D06FF00203FB6031E0E6
:101760007B68002B18D11B4B1B689B691A4A1268B7
:101770000121104698470346002B03DA6FF004035B
:10178000FB6012E0154826F01DFC0346002B0CD030
:101790006FF00303FB6008E0114816F04BFA0346B4
:1017A000002B02D06FF00303FB60FB68002B09D114
:1017B00007497A681346DB0013449B000B441C3333
:1017C00002221A60FB6818461037BD4680BD00BF74
:1017D000F8260534607707345C770734FC770734E4
:1017E0009478073480B485B000AF78603960002306
:1017F000FB607B68012B03D96FF00103FB600DE0F8
:101800000A497A681346DB0013449B000B441C33DF
:101810001B68022B02D06FF00203FB60FB681846C6
:101820001437BD465DF8047B704700BFF8260534C9
:1018300080B485B000AF786039600023FB607B68BE
:10184000012B03D96FF00103FB6018E00F497A68A0
:101850001346DB0013449B000B441C331B68002B16
:1018600003D16FF00203FB6009E008497A68134670
:10187000DB0013449B000B441A683B681A60FB684A
:1018800018461437BD465DF8047B7047F8260534CA
:1018900080B588B000AF786039600023FB617B6859
:1018A000012B03D96FF00103FB6171E19D497A6857
:1018B0001346DB0013449B000B441C331B68022BB4
:1018C00003D06FF00203FB6162E17B68002B0CD157
:1018D000954B9B69002B08D0934B5B683A689A4202
:1018E00003D06FF00A03FB6152E18E497A68134618
:1018F000DB0013449B000B4404331B683A689A4294
:1019000000F046817B68002B2FD1884A3B68136228
:10191000874A3B6813623968844800F0C7FF034672
:10192000002B03D06FF00803FB6131E17F4825F005
:1019300007FE0346002B03D06FF00303FB6127E192
:101940007B4825F0FDFD0346002B03D06FF0030319
:10195000FB611DE173497A681346DB0013449B0069
:101960000B4404333A681A6012E13968714800F098
:10197000C5FE0346002B03D06FF00803FB61FAE0BD
:101980006C4815F037FE0346002B03D06FF00303BD
:10199000FB61F0E03B68B3F5FA5F30D03B6842F69C
:1019A0001132934228D03B68B3F57A5F22D03B686E
:1019B00045F2226293421BD03B68B3F5FA4F15D033
:1019C0003B684AF6444293420ED03B684BF6803265
:1019D000934207D03B68584A934201D1122310E04A
:1019E00018230EE00A230CE00A230AE00A2308E089
:1019F000022306E0022304E06FF0050301E06FF02C
:101A00000303BB603B68B3F5FA5F2FD03B6842F637
:101A10001132934228D03B68B3F57A5F22D03B68FD
:101A200045F2226293421BD03B68B3F5FA4F15D0C2
:101A30003B684AF6444293420ED03B684BF68032F4
:101A4000934207D03B683C4A934201D108230EE001
:101A500004230CE010230AE0102308E0102306E022
:101A6000202304E0202302E0402300E04023FB6029
:101A700040233B613B68B3F5FA5F2FD03B6842F6E9
:101A80001132934228D03B68B3F57A5F22D03B688D
:101A900045F2226293421BD03B68B3F5FA4F15D052
:101AA0003B684AF6444293420ED03B684BF6803284
:101AB000934207D03B68204A934201D102230EE0B3
:101AC00001230CE002230AE0012308E0022306E0E0
:101AD000012304E0022302E0012300E002237B61F2
:101AE0003B68B3F5FA5F35D03B6842F6113293425A
:101AF0002ED03B68B3F57A5F28D03B6845F222626E
:101B0000934221D03B68B3F5FA4F1BD03B684AF6AD
:101B10004442934214D03B684BF6803293420DD13D
:101B2000082318E0F8260534D8260534FC77073456
:101B300064770734947807340077010010230AE0B3
:101B4000042308E00C2306E0042304E00C2302E055
:101B5000042300E00C23BB61104800F0F7FC07F100
:101B6000080319460D4800F07BF90346002B02D00C
:101B70006FF00303FB61FB69002B09D108497A6808
:101B80001346DB0013449B000B4404333A681A608D
:101B9000FB6918462037BD4680BD00BF94780734E6
:101BA000F826053480B485B000AF78603960002332
:101BB000FB607B68012B03D96FF00103FB6019E028
:101BC00010497A681346DB0013449B000B441C3316
:101BD0001B68002B03D16FF00203FB600AE0094988
:101BE0007A681346DB0013449B000B4404331A68E5
:101BF0003B681A60FB6818461437BD465DF8047BE5
:101C0000704700BFF826053480B485B000AF786017
:101C100039600023FB607B68012B03D96FF001035F
:101C2000FB6014E03B68102B03D06FF00A03FB60ED
:101C30000DE00A497A681346DB0013449B000B440D
:101C40001C331B68022B02D06FF00203FB60FB68A1
:101C500018461437BD465DF8047B7047F8260534F6
:101C600080B485B000AF786039600023FB607B688A
:101C7000012B03D96FF00103FB6019E010497A686A
:101C80001346DB0013449B000B441C331B68002BE2
:101C900003D16FF00203FB600AE009497A6813463A
:101CA000DB0013449B000B4408331A683B681A603E
:101CB000FB6818461437BD465DF8047B704700BFCB
:101CC000F826053480B485B000AF78603960002311
:101CD000FB607B68012B03D96FF00103FB6014E00C
:101CE0003B68012B03D06FF00A03FB600DE00A494B
:101CF0007A681346DB0013449B000B441C331B68BB
:101D0000022B02D06FF00203FB60FB681846143709
:101D1000BD465DF8047B7047F826053480B485B075
:101D200000AF786039600023FB607B68012B03D92A
:101D30006FF00103FB6019E010497A681346DB007D
:101D400013449B000B441C331B68002B03D16FF022
:101D50000203FB600AE009497A681346DB0013447A
:101D60009B000B440C331A683B681A60FB681846EA
:101D70001437BD465DF8047B704700BFF826053474
:101D800080B485B000AF786039607B68012B02D8E1
:101D90003B68642B03D96FF00103FB6002E06FF036
:101DA0000A03FB60FB6818461437BD465DF8047BE8
:101DB000704780B485B000AF786039607B68012BD4
:101DC00003D96FF00103FB6005E03B6800221A6055
:101DD0006FF00A03FB60FB6818461437BD465DF8D8
:101DE000047B704780B485B000AF78603960002311
:101DF000FB607B68012B03D96FF00103FB600AE0F5
:101E000008497A681346DB0013449B000B441C33DB
:101E10001A683B681A60FB6818461437BD465DF8BF
:101E2000047B7047F826053480B582B000AF786037
:101E300039607B68002B06D1074BD3F884301846F5
:101E400010F072FE04E0054B9B6B184610F06CFE20
:101E500000BF0837BD4680BDFC770734947807344F
:101E600080B584B000AF786039600023FB733B68B5
:101E7000DA687B689A607B6801221A737B6820228B
:101E80001A613B681A697B685A617B6800221A767E
:101E90007B68012283F824207B6810229A627B6889
:101EA0000022DA627B681F221A637B6801225A6370
:101EB000786815F09FF80346002B01D00123FB73CF
:101EC000194B00221A60184B00225A603B689B682D
:101ED000154A93603B685B68134AD360124B00223B
:101EE0001A613B681B68104A53610F4B01221A7636
:101EF0000D4B0022DA610C4B012283F820200A4BA3
:101F000000225A62084B002283F82820064B002248
:101F10005A66054B00229A66034B0022DA66FB7B69
:101F200018461037BD4680BD887A073480B582B028
:101F300000AF7860002002F077FD00BF0837BD4693
:101F400080BD80B582B000AF7860002002F058FDFF
:101F500000BF0837BD4680BD80B586B000AF786051
:101F60001F4B9B6B5B083B613B695B087B612CE013
:101F70001C4A7B6952F82330002B00DAFF331B1216
:101F8000FB60FB6813F5004F08DBFB68B3F5004FFF
:101F900001DAFB6803E047F6FF7300E0124BFB60D9
:101FA000F9680F4B5A6B7B695B001344CAB21A7015
:101FB000FB68190A0A4B5A6B7B695B0001331344B7
:101FC000CAB21A707B6901337B617A693B699A42B4
:101FD000CED3012002F014FD00BF1837BD4680BDEE
:101FE000F8260534208005340080FFFF80B586B0D8
:101FF00000AF78601F4B9B6B5B083B6100237B61EC
:102000002CE01D4A7B6952F82330002B00DAFF33A5
:102010001B12FB60FB6813F5004F08DBFB68B3F590
:10202000004F01DAFB6803E047F6FF7300E0134B53
:10203000FB60F9680F4B5A6B7B695B001344CAB2B3
:102040001A70FB68190A0B4B5A6B7B695B000133F2
:102050001344CAB21A707B6901337B613B695B0828
:102060007A699A42CDD3012002F0DEFC00BF183716
:10207000BD4680BDF8260534208005340080FFFF72
:1020800080B582B000AF7860012002F021FD00BF72
:102090000837BD4680BD000080B588B000AF002382
:1020A000FB613423BB811B4B7B601B4BBB601B4B19
:1020B0007B611B4B3B611B4BBB613B1D19461A48A7
:1020C00007F062FE0346002B03D06FF00703FB61AD
:1020D0001BE03B461946144807F015FB0346002B4E
:1020E00003D06FF00403FB610FE03B689BB248F63E
:1020F0000412934203D06FF00603FB6105E00B4B23
:102100000B4A1A600B4B084A1A60FB6918462037C5
:10211000BD4680BDA5A2003419A3003441A40034FB
:10212000E5A300349DA40034047B073460770734B2
:10213000842705345C77073480B588B000AF7860B9
:102140004FF40010FEF72CFD4020FEF713FD022097
:10215000FEF710FD0220FEF70DFD0220FEF70AFD3E
:102160000123FB6002233B6100237B610223BB61EF
:102170000623FB6107F10C0319469E4813F044F94E
:102180004023FB600623FB6107F10C0319469948C5
:1021900013F03AF98023FB600623FB6107F10C037F
:1021A0001946944813F030F98023FB600623FB6145
:1021B00007F10C031946904813F026F97B681B6859
:1021C0008E4A934240F0BD801020FEF7A7FC8C4B56
:1021D0008C4A1A608C4B1B68002B11D0884811F078
:1021E00047FB0346002B02D00020FEF7B1FE8648D5
:1021F00012F056F90346002B02D00020FEF7A8FE8D
:10220000824B21221A60814B5B225A607F4B002255
:102210009A607E4B4FF48062DA607C4B08221A6130
:102220007A4B00225A617A4B9B68102B07D1774B6F
:1022300001229A61754B4FF48032DA6106E0734BEC
:1022400002229A61714B4FF40032DA616F4B012226
:102250005A626E4B01229A626C4B4FF440021A6232
:102260006A4B00221A63694B4FF08042DA62674B77
:1022700000229A63654B0022DA63644B00225A64A1
:10228000624B4422DA66614B88221A67FF215C4860
:1022900010F0B4FD0346002B02D00020FEF758FEDC
:1022A0005C495A4811F094FE0346002B02D00020EE
:1022B000FEF74EFE5749544812F07AF80346002BB9
:1022C00002D00020FEF744FE4F4812F033F90346D7
:1022D000002B02D00020FEF73BFE494B4FF440029A
:1022E0009A63474B0022DA63454B4FF400321A647D
:1022F000434B4FF040425A64414B81229A6440481C
:1023000010F040FE0346002B02D00020FEF720FE16
:102310003D493B4812F06EF90346002B02D00020E5
:10232000FEF716FE7B68364AC3F88020344A7B6885
:10233000D36500220E21562010F0E6F8562010F04A
:102340003DF97B681B68344A934240F0F3804FF4B8
:102350000010FEF725FC1020FEF70CFC0823FB60A4
:1023600002233B6100237B610223BB610623FB61E7
:1023700007F10C031946294813F046F81020FEF720
:10238000CDFB274B274A1A60274B1B68002B11D027
:10239000234811F06DFA0346002B02D0002002F012
:1023A00097FB214812F07CF80346002B02D0002056
:1023B00002F08EFB154B21221A60144B5C225A60EE
:1023C000124B00229A60114B0022DA600F4B002260
:1023D0001A610E4B4FF400225A61144B9B68102B6C
:1023E00026D10A4B01229A61084B4FF48032DA6100
:1023F00025E000BF0004025600180256045800529F
:10240000D878073450110250407A07342C7B0734B7
:10241000D826053420850534245800520010025671
:1024200050790734D0100250587A0734F826053412
:10243000424B02229A61414B4FF40032DA613F4B2A
:1024400001225A623D4B01229A623C4B4FF44002FA
:102450001A623A4B00221A63384B4FF08042DA621C
:10246000364B00229A63354B0022DA63334B00224D
:102470005A64324B4422DA66304B88221A67FF21B5
:102480002F4810F0BBFC0346002B02D0002002F0C6
:102490001FFB2C49294811F09BFD0346002B02D05D
:1024A000002002F015FB2749274811F081FF034661
:1024B000002B02D0002002F00BFB234812F03AF868
:1024C0000346002B02D0002002F002FB1C4B4FF40D
:1024D00040029A631A4B0022DA63194B4FF4003220
:1024E0001A64174B4FF040425A64154B81229A648C
:1024F000134810F047FD0346002B02D0002002F0E5
:10250000E7FA11490E4812F075F80346002B02D085
:10251000002002F0DDFA7B68094AC3F88420084AEB
:102520007B68D36500220F2155200FF0EDFF552069
:1025300010F044F800BF2037BD4680BD2C7B073427
:102540005079073444850534587A073480B588B00B
:1025500000AF78604FF48030FEF7F6FA1020FEF7F7
:1025600009FB02233B6100237B610323BB6104233E
:10257000FB614FF48073FB6007F10C031946594867
:1025800012F042FF1020FEF7F5FA0423FB6104234A
:10259000FB6007F10C031946524812F035FF524B0D
:1025A0001B68002B40F09A801020FEF7B7FA4F4BC3
:1025B0004F4A1A604F4B21221A604E4B84225A60B8
:1025C0004C4B00229A604B4B0022DA60494B0022B0
:1025D0001A61484B4FF400225A61464B02229A611D
:1025E000444B4FF40032DA61424B01225A62414BB4
:1025F00001229A623F4B4FF440021A623D4B002287
:102600001A633C4B4FF08042DA623A4B00229A63E5
:10261000384B0022DA63374B00225A64354B442290
:10262000DA66344B88221A67FF21304810F0E6FB47
:102630000346002B02D0012002F04AFA2E492D4811
:1026400011F0C6FC0346002B02D0012002F040FA34
:102650002949254811F0ACFE0346002B02D0012089
:1026600002F036FA204811F065FF0346002B02D035
:10267000012002F02DFA1D4B4FF440029A631B4BD0
:102680000022DA63194B4FF400321A64174B4FF0F3
:1026900040425A64154B81229A64144810F072FC2F
:1026A0000346002B02D0012002F012FA0E490F4817
:1026B00011F0A0FF0346002B02D0012002F008FA1F
:1026C0007B680A4A9A63094A7B68D36500220E2117
:1026D00054200FF019FF54200FF070FF00BF203777
:1026E000BD4680BD00100256707A0734C8790734A1
:1026F00050100250A07B07346885053480B5ADF5D5
:102700000E7D00AF07F50E73A3F50D73186007F586
:102710000E73A3F50E731960002387F83732002378
:10272000C7F89C310023C7F8C4310023C7F8E03153
:102730000023C7F8FC310223C7F818320023C7F87A
:102740001C320023C7F824320823C7F8203207F5CB
:102750000E73A3F50E731B6842F61132934211D02B
:1027600007F50E73A3F50E731B6845F222629342C0
:1027700008D007F50E73A3F50E731B684AF64442A2
:10278000934209D1C023C7F828320423C7F82C325A
:102790000223C7F830321AE007F50E73A3F50E7363
:1027A0001B68414A934209D1AC23C7F8283202235F
:1027B000C7F82C320123C7F8303208E0AC23C7F841
:1027C00028320723C7F82C320423C7F8303207F524
:1027D000CE73184616F0EEFA0346002B02D0012302
:1027E00087F8373207F50E73A3F50C714FF00072BE
:1027F0004FF00003C1E9002307F50E73A3F50C7336
:102800004FF44032C3F81C2107F50E73A3F50C7387
:102810004FF040521A6407F50E73A3F50E731B6850
:1028200042F61132934211D007F50E73A3F50E73E1
:102830001B6845F22262934208D007F50E73A3F598
:102840000E731B684AF64442934206D107F50E7395
:10285000A3F50C7311225A6414E007F50E73A3F567
:102860000E731B68104A934206D107F50E73A3F549
:102870000C7307225A6405E007F50E73A3F50C7379
:1028800001225A6407F10803184619F035FC034683
:10289000002B02D0012387F8373297F837321846D9
:1028A00007F50E77BD4680BD0077010080B5ADF518
:1028B0000E7D00AF07F50E73A3F50D73186007F5D5
:1028C0000E73A3F50E731960002387F837320023C7
:1028D000C7F89C310023C7F8C4310023C7F8E031A2
:1028E0000023C7F8FC310223C7F818320023C7F8C9
:1028F0001C320023C7F824320823C7F8203207F51A
:102900000E73A3F50E731B6842F61132934211D079
:1029100007F50E73A3F50E731B6845F2226293420E
:1029200008D007F50E73A3F50E731B684AF64442F0
:10293000934209D1C023C7F828320423C7F82C32A8
:102940000223C7F8303208E0AC23C7F82832072347
:10295000C7F82C320423C7F8303207F5CE73184677
:1029600016F028FA0346002B02D0012387F83732ED
:1029700007F50E73A3F50C714FF080524FF0000372
:10298000C1E9002307F50E73A3F50C73214AC3F8C0
:10299000242107F50E73A3F50C734FF040529A6390
:1029A00007F50E73A3F50E731B6842F611329342BE
:1029B00011D007F50E73A3F50E731B6845F2226262
:1029C000934208D007F50E73A3F50E731B684AF601
:1029D0004442934206D107F50E73A3F50C731122FE
:1029E000DA6305E007F50E73A3F50C730122DA63D1
:1029F00007F10803184619F07FFB0346002B02D0AD
:102A0000012387F8373297F83732184607F50E77E3
:102A1000BD4680BD1814020780B582B000AF3C22CD
:102A200000210D4830F068FA00237B600CE00A4971
:102A30007A6813469B0013449B000B440C33074AEF
:102A40001A607B6801337B607B68022BEFDD00BF7F
:102A500000BF0837BD4680BD147C0734FFFF7F7F71
:102A600080B582B000AF786087ED000A7B68022BEA
:102A700005D93A4B3A4A3A213A482FF041FA3A49B5
:102A80007A6813469B0013449B000B443A681A6013
:102A900035497A6813469B0013449B000B44083366
:102AA00093ED007AD7ED007A77EE277A2E497A688F
:102AB00013469B0013449B000B440833C3ED007A7C
:102AC00029497A6813469B0013449B000B44043346
:102AD0001B68591C24487A6813469B0013449B00CA
:102AE00003440433196020497A6813469B00134459
:102AF0009B000B440C33D3ED007A97ED007AB4EED3
:102B0000E77AF1EE10FA09D517497A6813469B0067
:102B100013449B000B440C333A681A6012497A68DC
:102B200013469B0013449B000B441033D3ED007AF3
:102B300097ED007AB4EEE77AF1EE10FA00DC09E0E6
:102B400009497A6813469B0013449B000B441033D9
:102B50003A681A6000BF0837BD4680BD205603346E
:102B6000D48903343C560334147C073480B483B0D6
:102B700000AF786017497A6813469B0013449B00A6
:102B80000B4404331B68002B19D012497A68134692
:102B90009B0013449B000B44083393ED007A0D49CE
:102BA0007A6813469B0013449B000B4404331B6854
:102BB00007EE903AF8EE677AC7EE276A01E0DFED9C
:102BC000066AF0EE667AB0EE670A0C37BD465DF82D
:102BD000047B7047147C07340000000080B483B08D
:102BE00000AF786007497A6813469B0013449B0046
:102BF0000B4404331B6818460C37BD465DF8047B54
:102C0000704700BF147C073480B483B000AF786095
:102C10007B68013B032B13D801A252F823F000BFBD
:102C2000312C0034352C0034392C00343D2C003448
:102C3000074B06E0074B04E0074B02E0074B00E0C0
:102C4000074B18460C37BD465DF8047B704700BF44
:102C50009C560334A4560334AC560334B4560334A0
:102C6000BC5603340EB480B585B000AF78607B6885
:102C7000032B2DDC7B68013B032B1BD801A252F8F0
:102C800023F000BF952C00349D2C0034A52C00347B
:102C9000AD2C003412482FF0D5FF0FE011482FF073
:102CA000D1FF0BE010482FF0CDFF07E00F482FF0C9
:102CB000C9FF03E00C482FF0C5FF00BF07F1200358
:102CC000FB60F968F86930F079F807482FF0BAFF2F
:102CD00000BF1437BD46BDE8804003B0704700BF59
:102CE000C4560334CC560334D4560334DC56033470
:102CF00080B485B000AF7860074A7B68C2F85C3A60
:102D0000054BD3F85C32FB60FB6800BF1437BD464F
:102D10005DF8047B704700BF0080025680B485B028
:102D200000AF7860074A7B68C2F8603A054BD3F879
:102D30006032FB60FB6800BF1437BD465DF8047B62
:102D4000704700BF0080025680B483B000AF786047
:102D5000044A7B68C2F8203A00BF0C37BD465DF8D4
:102D6000047B70470080025680B483B000AF786067
:102D7000064B03F580531A467B68C2F8203200BF29
:102D80000C37BD465DF8047B704700BF00800256DB
:102D900080B485B000AF7860074A7B68C2F86C3AAF
:102DA000054BD3F86C32FB60FB6800BF1437BD469F
:102DB0005DF8047B704700BF0080025680B483B08A
:102DC00000AF7860044A7B68C2F82C3A00BF0C3729
:102DD000BD465DF8047B70470080025680B483B026
:102DE00000AF7860064B03F580531A467B68C2F843
:102DF0002C3200BF0C37BD465DF8047B704700BF26
:102E00000080025680B588B000AF7860204BFB6030
:102E100001227B6802FA03F3FB617C23BB6107F1AB
:102E2000140207F10C03B96918460FF023F80346A2
:102E3000002B28D17A69FB691340FA699A4223D0A2
:102E40007A69FB6913437B617A6907F10C000023FF
:102E5000B9690FF047F80346002B13D107F11402AC
:102E600007F10C03B96918460FF004F80346002B6C
:102E700007D17A69FB691340FA699A4204D000BF0E
:102E8000FDE7FEE7FEE7FEE700BF2037BD4680BD59
:102E90000090005680B586B000AF3B1D00221A603E
:102EA0005A609A60DA601A611020FFF771FF1020F3
:102EB000FFF784FF1020FFF791FF1020FFF718FFA6
:102EC00020237B600223BB600023FB6000233B6167
:102ED00007237B613B1D1946234812F095FA4023D6
:102EE0007B600223BB600123FB6000233B6107235F
:102EF0007B613B1D19461C4812F086FA1B4B1C4A8D
:102F00001A601A4B4FF416525A60184B00229A60FE
:102F1000164B0022DA60154B00221A61134B0C226B
:102F20005A61124B00229A61104B0022DA610F4B5A
:102F300000221A620D4B00225A620C4B00229A6248
:102F40000A4825F037FC0346002B01D000BFFDE7FF
:102F5000064B1B681A68054B1B6822F000521A606A
:102F600000BF1837BD4680BD00100256507C0734A4
:102F70000010005280B582B000AF4FF00040FFF764
:102F8000CDFE4FF00040FFF7DFFE4FF00040FFF7AF
:102F9000EBFE4FF08040FFF7C1FE4FF08040FFF79F
:102FA000D3FE4FF08040FFF7DFFE27F0F7FE27F05B
:102FB00003FF02233B6003237B603B46194601204D
:102FC00023F0B0FE0321034823F056FF00BF08376B
:102FD000BD4680BD0A00003080B500AF1020FFF76D
:102FE00011FF0F20FFF70EFF00BF80BDB0B5ADF59C
:102FF0001A7D00AF07F50A734022002118462FF012
:103000007BFF07F5C8739822002118462FF074FF44
:1030100007F51A73A3F51A7318464FF4C8731A46C6
:1030200000212FF069FF0223C7F890310823C7F869
:103030009C310223C7F8B8310023C7F8BC31022302
:10304000C7F8C0311923C7F8C8310123C7F8CC31FC
:103050000123C7F8D0310023C7F8C4310223C7F8D1
:10306000D4310023C7F8D8310823C7F8DC31002356
:10307000C7F8E0314B23C7F8E4310123C7F8E83142
:103080000123C7F8EC310123C7F8F0310123C7F859
:103090000C3207F5C873184615F08CFE0346002B5A
:1030A00001D000BFFDE77F23C7F828324FF08053DF
:1030B000C7F848320123C7F84C320023C7F8503212
:1030C0000223C7F854320023C7F858320123C7F847
:1030D0005C323E4B4FF448721A600023C7F86032EE
:1030E0000123C7F864323A4B4FF448721A604FF428
:1030F0004033C7F82C324FF04073C7F830324FF4EA
:103100000013C7F834320023C7F838320023C7F859
:103110003C320023C7F840320023C7F8443207F599
:103120000A73184616F066FB0346002B01D000BF59
:10313000FDE707F51A73A3F51A714FF000024FF47B
:103140008003C1E9002307F51A73A3F51A73214A16
:10315000C3F8AC2007F51A73A3F51A7300221A629C
:1031600007F51A73A3F51A7304225A6207F51A7346
:10317000A3F51A73D3E90023144643F4000507F5B9
:103180001A73A3F51A73C3E9004507F51A73A3F57B
:103190001A73114AC3F8B02007F51A73A3F51A730E
:1031A00000229A6107F51A73A3F51A730422DA61F3
:1031B0003B46184618F0A0FF0346002B00D000BE87
:1031C00000BF07F51A77BD46B0BD00BF44270534E0
:1031D00040270534140003031404020380B400AF35
:1031E000034BDB6F1846BD465DF8047B704700BF9C
:1031F000003000E080B485B000AF78607B681B7D54
:10320000002B05D07B685B68FB60FB681B6801E0F6
:103210007B685B6818461437BD465DF8047B7047D1
:1032200080B582B000AF78607868FFF7E3FF0246B0
:103230007B689B68134418460837BD4680BD80B440
:1032400085B000AF786039607B6893F827301A4604
:103250003B681A607B689B69012B04D87B6893F8F4
:103260002730032B18D80023FB600DE07B68DA6A57
:10327000FB689B0013441A683968FB689B000B4489
:103280005A60FB680133FB607B6893F827301A466D
:10329000FB689342EADB17E07B68DB6A1A683B68ED
:1032A0005A607B68DB6A0C331A683B689A607B68FB
:1032B000DB6A04331A683B68DA607B68DB6A0833D0
:1032C0001A683B681A6100BF00BF1437BD465DF83D
:1032D000047B704780B590B000AF78600123FB633A
:1032E0007B68002B03D13A213C4801F0B7FF7B6893
:1032F00004333B633B6B1B69012B01D90023FB6348
:103300003B6B1B69012B01D90023FB630023BB63CB
:1033100025E03B6BBA6B063253F82230FB6207F1B3
:1033200008031946F86AFFF78AFFFB6A93F823300F
:10333000072B0FD1BB68042B0CD1FB68012B09D8DC
:103340003B69642B06D87B69B3F5967F02D8BB69CD
:10335000642B01D90023FB63BB6B0133BB633B6B65
:103360001A69BB6B9A42D4D800237B6325E03B6B80
:103370007A6B263253F82230FB6207F108031946B4
:10338000F86AFFF75CFFFB6A93F82330012B0FD13B
:10339000BB68042B0CD1FB68012B09D83B69642B5B
:1033A00006D87B69B3F5967F02D8BB69642B01D937
:1033B0000023FB637B6B01337B633B6B5A697B6B45
:1033C0009A42D4D8FB6B002B03D105490220FFF7AA
:1033D00049FCFB6B18464037BD4680BDE4560334BC
:1033E0003C57033490B58FB002AF786007F1080303
:1033F00019467868FFF723FF7B681B681A46314936
:103400000320FFF72FFC7868FFF70AFF03461C46EE
:10341000786802F0D7FD02467B6893F82830009365
:103420001346224628490320FFF71CFC7B6893F8CB
:1034300023301A46BB6825490320FFF713FC0023FD
:10344000FB621EE0BB685A1EFB6A9A420BD1FB6A04
:103450009B0030333B4453F8243C1A461C4903205C
:10346000FFF700FC0AE0FB6A9B0030333B4453F853
:10347000243C1A4617490320FFF7F4FBFB6A01338B
:10348000FB62BA68FB6A9A42DCD813490320FFF753
:10349000E9FB7B681B6B002B10D07B681B6BD3EDAB
:1034A000007AB7EEE77A7B685B6BB3F90030009384
:1034B00053EC172B09490320FFF7D4FB00BF343727
:1034C000BD4690BD5C5703346C57033494570334A6
:1034D000B0570334B4570334B8570334BC570334DC
:1034E00080B586B000AF786039607B68002B03D16F
:1034F0008B214E4801F0B2FE7B681946002003F094
:1035000089F97B680121184603F0AFF97B68043321
:10351000FB60FB689B691B6BD3ED007AF5EE407A8C
:10352000F1EE10FA0CD0FB689B691B6B93ED007AEF
:10353000F7EE006AC6EE877A7B68C3ED4C7A03E04B
:103540003B490120FFF78EFBFB689B695B6BB3F97E
:1035500000305AB27B6883F8342136490320FFF7E4
:1035600081FB35490320FFF77DFB34490320FFF73A
:1035700079FBFB681B681A4631490320FFF772FB91
:10358000FB68D3F818311A462E490320FFF76AFB6F
:10359000FB68D3F820319B0A1A462B490320FFF71A
:1035A00061FBFB68D3F81C319B0A1A4627490320AC
:1035B000FFF758FBFB681B691A4625490320FFF7F4
:1035C00051FB00237B610AE0FB687A69063253F8FD
:1035D00022301846FFF706FF7B6901337B61FB68E9
:1035E0001A697B699A42EFD8FB685B691A461949E8
:1035F0000320FFF737FB00233B610AE0FB683A69D1
:10360000263253F822301846FFF7ECFE3B690133AF
:103610003B61FB685A693B699A42EFD87868FFF7CB
:1036200059FE034618461837BD4680BDE45603349C
:10363000DC5703340058033404580334145803345B
:10364000545803346C58033484580334A05803345A
:10365000BC580334D458033480B52DED028B8CB0A4
:1036600000AF78607B68002B03D1B721134801F0CD
:10367000F5FD7B6807F108021146184603F024F9AE
:10368000FFF7ACFD07EE900AF8EE677A9FED0C7A33
:1036900027EE878A16F030FD07EE900AF8EE677A7B
:1036A00088EE277AB0EE470A0120FFF7D9F9012307
:1036B00018463037BD46BDEC028B80BDE45603345E
:1036C00000007A4480B582B000AF786008482FF0DF
:1036D000B9FA08482FF0B6FA07482FF0B3FA0748AE
:1036E0002FF0B0FA002318460837BD4680BD00BF52
:1036F000EC58033400590334405903344859033417
:1037000080B400AF064BD3F8043E054A43F00403EF
:10371000C2F8043E00BFBD465DF8047B704700BFA1
:10372000003000E080B400AF034BDB6F1846BD46AD
:103730005DF8047B704700BF003000E080B584B0C6
:1037400000AF78605A482FF07DFA5A482FF07AFA85
:103750007023FB607B6804334FF4007118460CF053
:1037600063FC7B6802221A707B681A1D7B68C3F8B1
:1037700008217B680022C3F80C217B684E4AC3F8FD
:1037800010217B684FF47A52C3F814217B684FF400
:10379000C872C3F818217B684FF40072C3F81C216B
:1037A0007B6803F5BA727B68C3F828217B6803F253
:1037B00074527B68C3F82C21FB685A087B68C3F8F5
:1037C0002021FB685A08FB6803F001031A447B6858
:1037D000C3F824217B68394AC3F848217B68384AFA
:1037E000C3F84C217B68374AC3F850217B684022DC
:1037F000C3F858217B684FF40072C3F85C217B68E2
:103800004FF47A52C3F860217B6845F2D072A3F876
:1038100070217B6846F65372A3F872217B68002200
:10382000C3F864217B680022C3F868217B68012209
:10383000C3F86C217B6803F584727B68C3F834217C
:103840007B6803F5A4727B68C3F838217B6803F5B5
:103850009A727B68C3F83C217B680122C3F840213F
:103860007B68F7EE0079C3EDA2797B6847F60042EA
:10387000A3F846216022402113482FF0E3F94FF4CA
:103880007A5112482FF0DEF94FF4707110482FF082
:10389000D9F94FF4C8710F482FF0D4F9A0210E4880
:1038A0002FF0D0F9002318461037BD4680BD00BF69
:1038B000AC590334C0590334E8890334A490033469
:1038C000A4910334088D0334005A0334245A03347A
:1038D000405A03345C5A03347C5A033480B52DEDCE
:1038E000028B98B000AFF860B9607A60FB68002B7B
:1038F00003D17A21404801F0B1FCBB68002B03D111
:103900007B213D4801F0AAFC7B68002B03D17C2180
:10391000394801F0A3FCFFF7F3FEFB6840F2000218
:10392000A3F830210023FB653DE0FA6D13469B00B0
:1039300013449B011A46BB6813447B65FB6803F57F
:103940009E70FB6803F5C83393F95811FB6803F5C3
:10395000C833D3EDAD7907F11402B0EE670A0B4618
:10396000796D2DF09FF90023BB6513E0BA6D134606
:103970005B0013445B011A46FB6D13447A681344E1
:1039800007F11401BA6D0A4492F900201A70BB6D58
:103990000133BB65FB68D3F85831BA6D9A42E5D361
:1039A000FB6D0133FB65FB6D5F2BBED97A687B68CD
:1039B00003F5C0531946104627F0AEF9FFF7B2FEE3
:1039C00007EE900AF8EE677A9FED0C7A27EE878A69
:1039D00016F092FB07EE900AF8EE677A88EE277AE7
:1039E000B0EE470A0020FFF73BF801231846603786
:1039F000BD46BDEC028B80BD9C5A033400007A4466
:103A000080B489B000AF786039607B683B613B6906
:103A100053E8003FFB60FA683B681344FB617B6836
:103A2000BB61B969FA6941E800237B617B69002BBE
:103A3000EBD100BF00BF2437BD465DF8047B704763
:103A400080B584B000AF78607B68DB687A681279F3
:103A500002FB03F37A68926802FB03F3FB60F868E9
:103A60002EF06CFA03461A467B681A607B681B6866
:103A7000002B05D104490120FFF7F4F800BFFDE752
:103A800000BF1037BD4680BDF85A033480B584B0FE
:103A900000AF786039600023FB603B68BB607B68E7
:103AA0009A69BB689A4224D37B681A687B681B7941
:103AB00019467B681B6901FB03F31344FB607B68B9
:103AC0001A693B6813447A68D2687968896801FB8F
:103AD00002F2B3FBF2F101FB02F29A1A7B681A615F
:103AE0007B6803F11802BB685B4219461046FFF77A
:103AF00087FFFB6818461037BD4680BD80B58CB087
:103B000000AFF860B9607A607B68FB627B68BB627B
:103B100072B600BFBB689A69FB6A9A424DD3BB6814
:103B20001B797B62BB681B693B62BB68DB68BA6858
:103B3000926802FB03F3FB61FA693B6AD31ABA6A23
:103B4000934228BF1346BB61BB681A683B6A796A17
:103B500001FB03F3D118BB697A6A02FB03F31A462F
:103B6000F8682FF058FCBB697B61BA6ABB69D31A4D
:103B7000BB61BB681A69BB6A1A44BB681A61BB693E
:103B8000002B11D07B697A6A02FB03F3FA68D01824
:103B9000BB681968BB697A6A02FB03F31A462FF007
:103BA0003AFCBB68BA691A61BB6803F11802FB6A88
:103BB0005B4219461046FFF723FF62B600BFFB6861
:103BC00018463037BD4680BD80B58CB000AFF86078
:103BD000B9601346FB80B7F90630FB62B7F90630CF
:103BE000BB6272B600BFBB68002B60D0FB681B686D
:103BF000002B5CD0FB689A69BB6A1A44FB68DB68DF
:103C0000F968896801FB03F39A4204D92D4904201D
:103C1000FFF728F84FE0FB681B797B62FB685B6964
:103C20003B62FB68DB68FA68926802FB03F3FB61A6
:103C3000FA693B6AD31ABA6A934228BF1346BB613A
:103C4000FB681A683B6A796A01FB03F3D018BB6909
:103C50007A6A02FB03F31A46B9682FF0DCFBBB69F2
:103C60007B61BA6ABB69D31ABB61FB685A69BB6ADC
:103C70001A44FB685A61BB69002B11D0FB681868B5
:103C80007B697A6A02FB03F3BA68D118BB697A6A66
:103C900002FB03F31A462FF0BEFBFB68BA695A61B8
:103CA000FB681833F96A1846FFF7AAFE03E00649D5
:103CB0000120FEF7D7FF62B600BF00BF3037BD4618
:103CC00080BD00BF285B0334445B033480B485B0FF
:103CD00000AF7860074A7B68C2F8843A054BD3F896
:103CE0008432FB60FB6800BF1437BD465DF8047B7F
:103CF000704700BF0080025680B485B000AF786086
:103D0000074A7B68C2F84C3A054BD3F84C32FB604B
:103D1000FB6800BF1437BD465DF8047B704700BFE9
:103D20000080025680B485B000AF7860074A7B6897
:103D3000C2F88C3A054BD3F88C32FB60FB6800BFAD
:103D40001437BD465DF8047B704700BF0080025603
:103D500080B485B000AF7860074A7B68C2F8903ABB
:103D6000054BD3F89032FB60FB6800BF1437BD46AB
:103D70005DF8047B704700BF0080025680B485B0B8
:103D800000AF7860074A7B68C2F8943A054BD3F8D5
:103D90009432FB60FB6800BF1437BD465DF8047BBE
:103DA000704700BF0080025680B485B000AF7860D5
:103DB000074A7B68C2F8583A054BD3F85832FB6083
:103DC000FB6800BF1437BD465DF8047B704700BF39
:103DD0000080025680B483B000AF7860044A7B68EC
:103DE000C2F8183A00BF0C37BD465DF8047B704737
:103DF0000080025680B483B000AF7860064B03F5B4
:103E000080531A467B68C2F8183200BF0C37BD4693
:103E10005DF8047B704700BF0080025680B485B017
:103E200000AF7860074A7B68C2F8983A054BD3F830
:103E30009832FB60FB6800BF1437BD465DF8047B19
:103E4000704700BF0080025680B485B000AF786034
:103E5000074A7B68C2F85C3A054BD3F85C32FB60DA
:103E6000FB6800BF1437BD465DF8047B704700BF98
:103E70000080025680B485B000AF7860074A7B6846
:103E8000C2F89C3A054BD3F89C32FB60FB6800BF3C
:103E90001437BD465DF8047B704700BF00800256B2
:103EA00080B485B000AF7860074A7B68C2F8A03A5A
:103EB000054BD3F8A032FB60FB6800BF1437BD464A
:103EC0005DF8047B704700BF0080025680B485B067
:103ED00000AF7860074A7B68C2F8A43A054BD3F874
:103EE000A432FB60FB6800BF1437BD465DF8047B5D
:103EF000704700BF0080025680B485B000AF786084
:103F0000074A7B68C2F8A83A054BD3F8A832FB6091
:103F1000FB6800BF1437BD465DF8047B704700BFE7
:103F20000080025680B485B000AF7860074A7B6895
:103F3000C2F8AC3A054BD3F8AC32FB60FB6800BF6B
:103F40001437BD465DF8047B704700BF0080025601
:103F500080B485B000AF7860074A7B68C2F8B43A95
:103F6000054BD3F8B432FB60FB6800BF1437BD4685
:103F70005DF8047B704700BF0080025680B485B0B6
:103F800000AF7860074A7B68C2F8783A054BD3F8EF
:103F90007832FB60FB6800BF1437BD465DF8047BD8
:103FA000704700BF0080025680B485B000AF7860D3
:103FB000074A7B68C2F8B83A054BD3F8B832FB60C1
:103FC000FB6800BF1437BD465DF8047B704700BF37
:103FD0000080025680B485B000AF7860074A7B68E5
:103FE000C2F8BC3A054BD3F8BC32FB60FB6800BF9B
:103FF0001437BD465DF8047B704700BF0080025651
:1040000080B485B000AF7860074A7B68C2F8883A10
:10401000054BD3F88832FB60FB6800BF1437BD4600
:104020005DF8047B704700BF0080025680B483B007
:1040300000AF7860064B1B6A23F4403204497B686A
:1040400013430B6200BF0C37BD465DF8047B70471D
:104050000080025680B483B000AF7860064B1B6AC4
:1040600023F0407204497B6813430B6200BF0C3796
:10407000BD465DF8047B70470080025680B485B071
:1040800000AF78607B681B7D002B05D07B685B6888
:10409000FB60FB681B6801E07B685B6818461437AF
:1040A000BD465DF8047B704780B582B000AF786094
:1040B0007868FFF7E3FF02467B689B681344184665
:1040C0000837BD4680BD000080B584B000AF4D4BC1
:1040D0001B684C4A43F4005313600020FFF7A6FF0F
:1040E0000020FFF7B7FF0DF025FEFEF77FFFFEF77C
:1040F00073FF01F025F800F085FE00F0F1FFFEF7F8
:1041000039FF01F00DF8404B5B6903F40033002BDD
:104110001BD1BFF34F8F00BFBFF36F8F00BF3A4B70
:104120000022C3F85022BFF34F8F00BFBFF36F8F41
:1041300000BF354B5B69344A43F400335361BFF32E
:104140004F8F00BFBFF36F8F00E000BF2E4B5B6946
:1041500003F48033002B38D12B4B0022C3F884208A
:10416000BFF34F8F00BF284BD3F88030FB60FB6854
:104170005B0BC3F30E03BB60FB68DB08C3F30903EF
:104180007B60BB685A0143F6E07313407A6892077C
:104190001D491343C1F860327B685A1E7A60002BB8
:1041A000EFD1BB685A1EBA60002BE5D1BFF34F8F29
:1041B00000BF154B5B69144A43F480335361BFF36E
:1041C0004F8F00BFBFF36F8F00E000BF00F0FAFF1A
:1041D000FEF760FE0121002005F050FF01210120C3
:1041E00005F04CFF002005F0C1FE012005F0BEFEE9
:1041F00000F0A8FB054B01221A7000BF1037BD4626
:1042000080BD00BF00E001E000ED00E0E47C073489
:1042100080B588B000AFF860B9607A607B68B3F5AC
:10422000A06F02D94FF4A0637B60BB68DB68BA68FB
:10423000926802FB03F3BB617B687B61BB689B698F
:104240007A699A4212D2BB685B691A467B69D31AB3
:10425000FB61FB69002B03DAFA69BB691344FB615C
:10426000FA69BB681A61BB687A699A61FB6803F5F1
:1042700020737A6819462048FFF740FC7B689AB2A1
:104280004FF4A0631C49B86800F0A4FCFB68D3F8A5
:104290008C32FA68D2F8882202FB03F3174A1360C3
:1042A000FB68D3F89832154AD360FB68D3F8903294
:1042B000124A5360FB68D3F89432104A9360BB688B
:1042C000DB68BA68926802FB03F30C4A1361BB68AF
:1042D0009B690A4AD361BB681B69084A5361BB6882
:1042E0005B69064A9361002005F0AEFE0123184683
:1042F0002037BD4680BD00BF8C970B348C0F0C342B
:1043000080B584B000AF0123FB73FEF785FB314815
:1043100000F06CF8304800F0B9F92F4800F0D3F9FC
:1043200000F0F4F92D4B00221A612C4B00225A6147
:104330002A4B01229A60294B02221A71274B4FF413
:10434000A062DA60254B264A1A60244B0022DA610B
:104350002EE000BF234B1B7883F00103DBB2002B60
:1043600003D04FF47053BB6002E04FF4A073BB6006
:10437000194BD3F898327B607A68BB689A4217D39E
:10438000184B1B7883F00103DBB2002B07D0BA680F
:104390001049114800F0B0F80346FB7306E0BA6814
:1043A0000E490D48FFF734FF0346FB7300F0D4F9C4
:1043B000FB7B002BCDD100F0A1F900F098F901F0C2
:1043C0002EFB09490320FEF74DFC00BF1037BD4608
:1043D00080BD00BF887F0734E87C07346C970B34BE
:1043E0000C6D0734E47C07346C5B033480B584B017
:1043F00000AF786001F000FB7B6803F5822303F5D2
:10440000D4633C491846FFF76BF87B6803F58223B9
:1044100003F2A463FB60FB689B691846FFF744FE48
:1044200002467B6803F58223C3F8D827FB68D3F8DC
:1044300098307A6802F58222C2F8DC377B6847F64A
:10444000E012002118462EF057FD7B6803F57343F8
:10445000C0331846FFF772F97B6803F5213303F583
:1044600090731846FFF72EF97B6803F5822393F9C2
:10447000D4277B6803F5203383F818257B6803F580
:10448000822303F5FA63D3ED007AF3EE677A7B6853
:1044900003F5203303F21A53C3ED00797B6803F56B
:1044A000203303F21A53D3ED00797B6803F52033F0
:1044B00003F21C53C3ED00797B6803F5203393F9B5
:1044C00018257B6803F5203383F81E257B6803F5E8
:1044D00082231A460023C2F8E0377B6803F5822363
:1044E00003F5D063184600F025FB00BF1037BD462A
:1044F00080BD00BF845B033480B58AB000AFF86034
:10450000B9607A60BB687B62BB6803F5F0433B62CD
:10451000BB6803F5F073FB610123FB764FF4F07287
:10452000396A786A2EF077FFFB6803F520734FF441
:1045300070521946F869FFF7E1FABB6803F5734357
:10454000C033BA6802F58222D2F8D827796A1846B1
:10455000FFF7C4F9BB6803F5704303F59E63D3ED21
:104560000079F2EE677A9FED467AF4EEC77AF1EEC3
:1045700010FACCBF01230023BB76BB6803F582236E
:1045800003F5D463BA6802F57342C0321146184687
:1045900001F039FA03467B76BB6803F5822303F505
:1045A000D4631846FFF758F8BB7E002B02D17B7E00
:1045B000002B07D0BB6803F58223D3F8DC371846FD
:1045C00000F054F92F4B1B7883F00103DBB2002B72
:1045D00004D0BB6803F5F343603300E0FB697B6103
:1045E000BB6803F5822000F5D0604FF2C0334FF472
:1045F0007052796900F0EEFAFB68D3F88C32FA68F1
:10460000D2F8882202FB03F31F4A1360FB68D3F839
:1046100098321D4AD360FB68D3F890321A4A53602F
:10462000FB68D3F89432184A9360BB6803F5822381
:10463000D3F88C36BA6802F58222D2F8882602FBBB
:1046400003F3114A1361BB6803F58223D3F898364C
:104650000D4AD361BB6803F58223D3F890360A4A2A
:104660005361BB6803F58223D3F89436064A9361FD
:10467000002005F0E9FCFB7E18462837BD4680BDCA
:1046800000803B45E47C07348C0F0C3480B582B04D
:1046900000AF78607B684FF47552C3F88C227B685A
:1046A000022283F884227B680222C3F888227B6876
:1046B00003F520731846FFF7C3F900F00DFC00BFA7
:1046C0000837BD4680BD80B582B000AF78607B689A
:1046D0004FF4207219460120FCF75AFF0346002BC5
:1046E00001D000F0ABFD00BF0837BD4680BD80B5EE
:1046F00000AF0120FCF7C4FB00BF80BD80B500AF58
:104700000120FCF7FBFF00BF80BD000080B500AFBB
:104710000C490320FEF7A6FA0B490320FEF7A2FA84
:1047200008490320FEF79EFA08490320FEF79AFA8B
:1047300007490320FEF796FA06490320FEF792FA8E
:1047400000BF80BD9C5B0334DC5B0334F45B03344B
:104750000C5C0334385C033480B58AB006AF0020AB
:10476000FEF704FAF0EE407A9FED397A27EE877A69
:10477000DFED386AC7EE267AC7ED037A0120FEF72F
:10478000F5F9F0EE407A9FED327A27EE877ADFED89
:10479000316AC7EE267AC7ED027A0220FEF7E6F903
:1047A000F0EE407A9FED2A7A27EE877ADFED296ACC
:1047B000C7EE267AC7ED017A0120FEF70FFA01460F
:1047C00097ED037AD7ED027A37EE277AD7ED017AA3
:1047D00077EE277AB7EEE74AD7ED037AB7EEE77AB6
:1047E000D7ED026AB7EEE66AD7ED015AB7EEE55AA1
:1047F0008DED045B8DED026B8DED007B53EC142B86
:1048000015482EF01FFA154B1968144BDA68134B34
:104810005868124B9B680093034611482EF012FA19
:104820000E4B19690D4BDA690C4B58690B4B9B69A0
:10483000009303460B482EF005FA0B4B1B689B6850
:1048400018462EF017F900BF1037BD4680BD00BFD7
:104850000000C842000070443C5C03348C0F0C34F0
:10486000605C0334885C03344C7E0534B0B592B090
:1048700000AF78602F4B07F10C041D460FCD0FC41D
:104880000FCD0FC495E8030084E803007868FFF7B4
:104890000BFCB863786801F095FB03469B087B63CB
:1048A000BB6B1B687B6400233B640123FB6317E045
:1048B000FB6B9B00BA6B1344D3ED007A97ED117A32
:1048C000B4EEE77AF1EE10FA07D5FB6B3B64FB6BB5
:1048D0009B00BA6B13441B687B64FB6B0133FB6367
:1048E000FA6B7B6B9A42E3D313490320FEF7BAF9C4
:1048F000D7ED117AB6EE007AF4EEC77AF1EE10FA3F
:104900000BDD3B6C9B0048333B4453F83C3C1A4660
:104910000A490320FEF7A6F904E0094A07490320E3
:10492000FEF7A0F904490320FEF79CF900BF4837C1
:10493000BD46B0BD385D0334385C0334B45C033429
:10494000C45C033480B500AF0F490320FEF78AF939
:104950000E490320FEF786F90D4A0E490320FEF7A3
:1049600081F90A490320FEF77DF90320FEF74CF98F
:104970000346194608482EF065F901F029F900F0C0
:104980007FFB00BF80BD00BF605D03349C5B0334D0
:10499000645D0334705D0334945D033480B500AF0F
:1049A000012005F051FB084B1B78002B14BF01239D
:1049B0000023DBB283F00103DBB203F00103DAB2C0
:1049C000014B1A7000BF80BDE47C073480B586B00F
:1049D00000AFF860B9601346FB71FA7913469B008B
:1049E00013449B011A46BB6813447B61A02279697A
:1049F000F868FFF7E9F800BF1837BD4680BD000032
:104A000080B582B000AF78607B68012B04D10122B1
:104A100003490448FFF7DAFF00BF0837BD4680BDF1
:104A2000E87C0734687F073480B582B000AF7860D7
:104A30007B68012B04D1002203490448FFF7C6FF1D
:104A400000BF0837BD4680BDE87C0734687F073467
:104A500080B582B000AF78600A4B1B7883F0010309
:104A6000DBB2002B05D047F6E0110748FFF70EF840
:104A700004E04FF420710548FFF708F800BF08373D
:104A8000BD4680BDE47C073408960B346C970B342C
:104A900080B582B000AF78600A4B1B7883F00103C9
:104AA000DBB2002B05D047F6E0110748FEF7EEFF1A
:104AB00004E04FF420710548FEF7E8FF00BF083717
:104AC000BD4680BDE47C073408960B346C970B34EC
:104AD00080B582B000AF786000F0B0FB00BF08374F
:104AE000BD4680BD80B582B000AF0346FB71FB7947
:104AF000002B15D1FFF752FF0B4B0022DA610B4B55
:104B000003F582231A460023C2F89C360020FCF7E6
:104B1000F5FDFFF7ECFD47F6E0110548FEF7B6FF9F
:104B200000BF0837BD4680BD6C970B34887F0734C3
:104B3000E87C073480B588B000AF78600123FB6063
:104B40004FF47A533B6110237B610123BB61002347
:104B5000FB6107F10C0319460020FCF737F8034608
:104B6000002B01D000F06AFB7B6800221A617B6891
:104B700000225A617B6801229A607B6802221A71C6
:104B80007B684FF2C032DA607B680F4A1A607B683C
:104B90000022DA610D4B00221A610C4B00225A618F
:104BA0000A4B01229A60094B02221A71074B4FF4FB
:104BB000A062DA60054B064A1A60044B0022DA61F3
:104BC00000BF2037BD4680BD8C8505346C970B3403
:104BD0000C6D073480B588B000AFF860B9603B60F9
:104BE0001346FB80FB881946B86800F041F887ED52
:104BF000060AD7ED067A9FED1D7AF4EEC77AF1EE3C
:104C000010FA0FD50023FB6108E0FB695B00BA686E
:104C1000134400221A80FB690133FB61FB88FA69A7
:104C20009A42F2DBFB68B7F90620B9681846FEF72E
:104C3000CBFFFB68DB69012B0ED1FB6819683B6871
:104C40005B001A460020FCF7BFF803467B617B69D6
:104C5000002B01D000F0F2FAFB68DB695A1CFB68FC
:104C6000DA6100BF2037BD4680BD00BF0000C8C26A
:104C700080B58AB000AF786039604FF000037B6286
:104C800000233B621BE03B6A5B007A681344B3F984
:104C9000003019463B6A5B007A681344B3F9003070
:104CA00001FB03F307EE903AF8EEE77A97ED097A05
:104CB00077EE277AC7ED097A3B6A01333B623A6A9D
:104CC0003B689A42DFDB3B6807EE903AB8EEE77A42
:104CD000D7ED096AC6EE877AB7EEE77AB0EE470BF2
:104CE0002FF0D6FFB0EE407B9FED3D6B37EE467B5D
:104CF000B2EE046B27EE067BF7EEC77BC7ED037AB7
:104D0000D7ED037A9FED387A77EE877AFDEEE77A72
:104D100017EE901A354B83FB01235A10CB17D31A89
:104D2000BB60BB6823EAE373BB60BB68142BA8BFFE
:104D30001423BB602E482DF085FF0023FB6105E0A6
:104D400020202DF091FFFB690133FB61FA69BB68FC
:104D50009A4202DAFB69052BF2DD26482DF072FF3C
:104D60000623BB6105E020202DF07EFFBB690133E7
:104D7000BB61BA69BB689A4202DABB690B2BF2DDF0
:104D80001D482DF05FFF0C237B6105E020202DF0F6
:104D90006BFF7B6901337B617A69BB689A42F5DB03
:104DA00016482DF04FFF00233B6105E020202DF039
:104DB0005BFF3B6901333B61BB68C3F114033A6994
:104DC0009A42F3DB0E4B1B689B6818462DF052FE8F
:104DD000FB6807EE903AB0EE670A2837BD4680BD03
:104DE00000000020D20F2240359EB44267666666FE
:104DF000A85D0334B05D0334B85D0334C05D033493
:104E00004C7E053480B584B000AF3B1D00221A6093
:104E10005A609A600120FFF7B1F84FF40020FFF7C5
:104E200013F8264BD3F84C32244A43F00F03C2F850
:104E30004C32224BD3F84C32204A43F48063C2F800
:104E40004C321F4B7B603B1D184613F0BFFC1D4BC3
:104E50007B603B1D184613F0B9FC1B4B7B603B1D70
:104E6000184613F0B3FC194B7B603B1D184613F03A
:104E7000ADFC174B7B603B1D184613F0A7FC4FF4AD
:104E80008060FEF739FF4FF48070FEF735FF012098
:104E9000FEF732FF0220FEF72FFF0420FEF72CFF63
:104EA0000820FEF729FF0B4B1B680A4A43F44053C6
:104EB000136000BF1037BD4680BD00BF00800256A2
:104EC00080300252003102528031025200320252CE
:104ED0008032025200E001E080B586B000AF3B4670
:104EE00019460120FCF77EFF0346002B01D000F09D
:104EF000A5F93B68002B01D000F0A0F910237B60DE
:104F00004FF47A53BB601023FB6001233B615023B5
:104F10007B613B1D19460120FCF7CCF80346002BB2
:104F200001D000F08BF93B4619460120FCF75AFFEF
:104F30000346002B01D000F081F93B68022B01D021
:104F400000F07CF90A210120FCF71AFF034613F157
:104F50000B0F01D000F072F901210120FCF742FC97
:104F60000346002B01D000F069F908210120FCF76D
:104F70004BFE034613F10B0F01D000F05FF9102137
:104F80000120FCF741FE0346002B01D000F056F94A
:104F900018210120FCF738FE034613F10B0F01D056
:104FA00000F04CF920210120FCF72EFE034613F1FE
:104FB0000B0F01D000F042F902210120FCF782FE24
:104FC000034613F10B0F01D000F038F90121012045
:104FD000FCF778FE0346002B01D000F02FF93B468A
:104FE00019460120FCF7E5FE034613F10B0F01D033
:104FF00000F024F93B4619460120FCF7D3FD034697
:10500000002B01D000F01AF93B4619460120FCF7AD
:105010000FFC0346002B01D000F010F93B68102B69
:1050200001D000F00BF93B4619460120FCF718FEB1
:105030000346002B01D000F001F93B68102B01D092
:1050400000F0FCF83B4619460120FCF767FE0346DA
:10505000002B01D000F0F2F83B68012B01D000F0EA
:10506000EDF8BB6819460120FCF712FC0346002B43
:1050700001D000F0E3F800BF1837BD4680BD000046
:1050800080B58AB000AF3B1D184600F049FD1049BD
:105090000320FDF7E7FDFB690E4A82FB0312921421
:1050A000DB17D31A1A460C490320FDF7DBFD3B6AD8
:1050B000084A82FB03129214DB17D31A1A460749D7
:1050C0000320FDF7CFFD00BF2837BD4680BD00BFE0
:1050D000C85D033483DE1B43EC5D0334085E033498
:1050E00080B582B000AF01233B7101237B713B1D72
:1050F0001946002005F048FD0346002B00D000BEF5
:10510000002005F02BFE054B1B68044A43F000739A
:10511000136000BF0837BD4680BD00BF00A0025825
:1051200080B500AF4FF48060FEF73EFE4FF4806024
:10513000FEF750FE4FF48060FEF75CFE00BF80BDBE
:1051400080B588B000AF3B1D00221A605A609A609B
:10515000DA6000233B80EFF310837B617B69FB61A6
:1051600072B600BF0DF072FA44237B7000233B70CF
:105170003B4618460DF098FA01233B7100237B71E2
:105180000E4BBB600E4BFB6000237B7401233B7412
:105190000023FB740023BB713B1D18460DF076FA0B
:1051A00004200DF031FAFB69BB61BB6983F3108801
:1051B00000BF00BF2037BD4680BD00BF2080053442
:1051C0001077073480B500AF4FF0FF30FEF77EFD5B
:1051D0004FF0FF30FEF7A6FD4FF0FF30FEF7B8FDB1
:1051E0004FF0FF30FEF7CAFD4FF0FF30FEF716FE1E
:1051F0004FF0FF30FEF73EFE4FF0FF30FEF750FE5F
:105200004FF0FF30FEF762FE4FF0FF30FEF774FE06
:105210004FF0FF30FEF786FE4FF0FF30FEF798FEAE
:105220004FF0FF30FEF7C0FE4FF0FF30FEF7D2FE2A
:105230004FF0FF30FEF7E4FE00BF80BD80B400AF4A
:1052400072B600BF00BFFDE780B500AFFEF73CFFC0
:10525000FFF756F80023184680BD000080B582B0E5
:1052600000AF786039603A68796803482DF0EAFC4D
:1052700000BE00BFFDE700BF245E033480B400AF72
:1052800000BFBD465DF8047B704780B400AF00BE30
:1052900000BFFDE780B400AF00BFFDE780B400AF02
:1052A00000BFFDE780B400AF00BFFDE780B400AFF2
:1052B00000BFFDE780B400AF00BFBD465DF8047BD2
:1052C000704780B400AF00BFFDE780B400AF00BFFF
:1052D000FDE7000080B500AF024B1B680CF07CFDC1
:1052E00000BF80BD10E000E080B500AF01210020CC
:1052F000FBF71CFE00BF80BD80B500AF1021012070
:10530000FCF792FD00BF80BD80B500AF002004F027
:1053100041FF00BF80BD80B500AF012004F03AFF1F
:1053200000BF80BD80B400AF00BFFDE780B400AF18
:1053300000BFFDE780B400AF00BFFDE780B400AF61
:1053400000BFFDE780B400AF00BFFDE780B400AF51
:1053500000BFFDE780B400AF00BFFDE780B400AF41
:1053600000BFFDE780B400AF00BFFDE780B400AF31
:1053700000BFFDE780B400AF00BFFDE780B400AF21
:1053800000BFFDE780B400AF00BFFDE780B400AF11
:1053900000BFFDE780B400AF00BFFDE780B400AF01
:1053A00000BFFDE780B400AF00BFFDE780B400AFF1
:1053B00000BFFDE780B400AF00BFFDE780B400AFE1
:1053C00000BFFDE780B400AF00BFFDE780B400AFD1
:1053D00000BFFDE780B400AF00BFFDE780B400AFC1
:1053E00000BFFDE780B400AF00BFFDE780B400AFB1
:1053F00000BFFDE780B400AF00BFFDE780B400AFA1
:1054000000BFFDE780B400AF00BFFDE780B400AF90
:1054100000BFFDE780B400AF00BFFDE780B400AF80
:1054200000BFFDE780B400AF00BFFDE780B400AF70
:1054300000BFFDE780B400AF00BFFDE780B400AF60
:1054400000BFFDE780B400AF00BFFDE780B400AF50
:1054500000BFFDE780B400AF00BFFDE780B400AF40
:1054600000BFFDE780B400AF00BFFDE780B400AF30
:1054700000BFFDE780B400AF00BFFDE780B400AF20
:1054800000BFFDE780B400AF00BFFDE780B400AF10
:1054900000BFFDE780B400AF00BFFDE780B400AF00
:1054A00000BFFDE780B400AF00BFFDE780B400AFF0
:1054B00000BFFDE780B400AF00BFFDE780B400AFE0
:1054C00000BFFDE780B400AF00BFFDE780B400AFD0
:1054D00000BFFDE780B400AF00BFFDE780B400AFC0
:1054E00000BFFDE780B400AF00BFFDE780B400AFB0
:1054F00000BFFDE780B400AF00BFFDE780B400AFA0
:1055000000BFFDE780B400AF00BFFDE780B400AF8F
:1055100000BFFDE780B400AF00BFFDE780B400AF7F
:1055200000BFFDE780B400AF00BFFDE780B400AF6F
:1055300000BFFDE780B400AF00BFFDE780B400AF5F
:1055400000BFFDE780B400AF00BFFDE780B400AF4F
:1055500000BFFDE780B400AF00BFFDE780B400AF3F
:1055600000BFFDE780B400AF00BFFDE780B400AF2F
:1055700000BFFDE780B400AF00BFFDE780B400AF1F
:1055800000BFFDE780B400AF00BFFDE780B400AF0F
:1055900000BFFDE780B400AF00BFFDE780B400AFFF
:1055A00000BFFDE780B400AF00BFFDE780B400AFEF
:1055B00000BFFDE780B400AF00BFFDE780B400AFDF
:1055C00000BFFDE780B400AF00BFFDE780B400AFCF
:1055D00000BFFDE780B400AF00BFFDE780B400AFBF
:1055E00000BFFDE780B400AF00BFFDE780B400AFAF
:1055F00000BFFDE780B400AF00BFFDE780B400AF9F
:1056000000BFFDE780B400AF00BFFDE780B400AF8E
:1056100000BFFDE780B400AF00BFFDE780B400AF7E
:1056200000BFFDE780B400AF00BFFDE780B400AF6E
:1056300000BFFDE780B400AF00BFFDE780B400AF5E
:1056400000BFFDE780B400AF00BFFDE780B400AF4E
:1056500000BFFDE780B400AF00BFFDE780B400AF3E
:1056600000BFFDE780B400AF00BFFDE780B400AF2E
:1056700000BFFDE780B400AF00BFFDE780B400AF1E
:1056800000BFFDE780B400AF00BFFDE780B400AF0E
:1056900000BFFDE780B400AF00BFFDE780B400AFFE
:1056A00000BFFDE780B400AF00BFFDE780B400AFEE
:1056B00000BFFDE780B400AF00BFFDE780B400AFDE
:1056C00000BFFDE780B400AF00BFFDE780B400AFCE
:1056D00000BFFDE780B400AF00BFFDE780B400AFBE
:1056E00000BFFDE780B400AF00BFFDE780B400AFAE
:1056F00000BFFDE780B400AF00BFFDE780B400AF9E
:1057000000BFFDE780B400AF00BFFDE780B400AF8D
:1057100000BFFDE780B400AF00BFFDE780B400AF7D
:1057200000BFFDE780B400AF00BFFDE780B400AF6D
:1057300000BFFDE780B400AF00BFFDE780B400AF5D
:1057400000BFFDE780B400AF00BFFDE780B400AF4D
:1057500000BFFDE780B400AF00BFFDE780B400AF3D
:1057600000BFFDE780B400AF00BFFDE780B400AF2D
:1057700000BFFDE780B400AF00BFFDE780B400AF1D
:1057800000BFFDE780B400AF00BFFDE780B400AF0D
:1057900000BFFDE780B400AF00BFFDE780B400AFFD
:1057A00000BFFDE780B400AF00BFFDE780B400AFED
:1057B00000BFFDE780B400AF00BFFDE780B400AFDD
:1057C00000BFFDE780B400AF00BFFDE780B400AFCD
:1057D00000BFFDE780B400AF00BFFDE780B400AFBD
:1057E00000BFFDE780B400AF00BFFDE780B400AFAD
:1057F00000BFFDE780B400AF00BFFDE780B400AF9D
:1058000000BFFDE780B400AF00BFFDE780B400AF8C
:1058100000BFFDE780B400AF00BFFDE780B400AF7C
:1058200000BFFDE780B400AF00BFFDE780B400AF6C
:1058300000BFFDE780B400AF00BFFDE780B400AF5C
:1058400000BFFDE780B400AF00BFFDE780B400AF4C
:1058500000BFFDE780B400AF00BFFDE780B400AF3C
:1058600000BFFDE780B400AF00BFFDE780B400AF2C
:1058700000BFFDE780B400AF00BFFDE780B400AF1C
:1058800000BFFDE780B400AF00BFFDE780B400AF0C
:1058900000BFFDE780B400AF00BFFDE780B400AFFC
:1058A00000BFFDE780B400AF01231846BD465DF898
:1058B000047B704780B582B000AF786039602DF00E
:1058C0006FFD034616221A604FF0FF331846083763
:1058D000BD4680BD80B582B000AF78604FF0FF312B
:1058E0007868FFF7E7FF00BFFDE780B586B000AF3F
:1058F000F860B9607A6000237B610AE0AFF3008052
:105900000146BB685A1CBA60CAB21A707B6901337F
:105910007B617A697B689A42F0DB7B6818461837AE
:10592000BD4680BD80B483B000AF78604FF0FF33D8
:1059300018460C37BD465DF8047B704780B483B0D1
:1059400000AF786039603B684FF400525A60002322
:1059500018460C37BD465DF8047B704780B483B0B1
:1059600000AF7860012318460C37BD465DF8047B14
:10597000704780B485B000AFF860B9607A600023EA
:1059800018461437BD465DF8047B704780B586B075
:1059900000AF7860144A154BD31A7B617B693B6179
:1059A000134B1B68002B02D1114B124A1A60104B8B
:1059B0001A687B6813443A699A4207D22DF0F0FCCA
:1059C00003460C221A604FF0FF3309E0084B1B68B6
:1059D000FB60074B1A687B681344054A1360FB6839
:1059E00018461837BD4680BD000010340050000036
:1059F000AC0F0C3438230C3480B400AF00BFBD466C
:105A00005DF8047B704780B483B000AF7860396084
:105A1000002318460C37BD465DF8047B704780B400
:105A200000AF00BFBD465DF8047B704780B584B011
:105A300000AF786039603B689AB24FF0FF33796805
:105A4000074823F03DF80346FB73FB7B002B0CBF9C
:105A500001230023DBB218461037BD4680BD00BFCE
:105A6000507C073480B586B000AFF860B9607A60CA
:105A70000123FB757B68002B0DDAFB68012B0AD034
:105A8000FB68022B07D02DF08BFC034609221A601D
:105A90004FF0FF330FE00A4B1B78002B05D07968DD
:105AA000B868FFF7C3FF0346FB75FB7D002B01D0F1
:105AB0007B6800E0002318461837BD4680BD00BF54
:105AC0004827053480B485B000AF0346FB80FB88CF
:105AD00040F28642934202D1054BFB6001E0054B48
:105AE000FB60FB6818461437BD465DF8047B7047C1
:105AF000AC5E0334B45E033480B483B000AF78602E
:105B00007B68002B01D0044B00E0044B18460C3797
:105B1000BD465DF8047B7047BC5E0334C45E03344D
:105B200080B582B000AF78607B68002B1BD014F08A
:105B3000E3FA02467B681A6014F05CFB02467B685D
:105B40005A6000F015F802467B689A607B6840F264
:105B50008642DA607B6800221A617B68143318463B
:105B600000F08AF900E000BF0837BD4680BD0000A4
:105B700080B483B000AF00237B607B6843F0A063F8
:105B80007B607B6843F480337B607B6843F0A06379
:105B90007B600E4B5B693B603B6803F48033002BFA
:105BA00003D07B6843F400637B603B6803F40033FD
:105BB000002B03D07B6843F480637B607B681846CE
:105BC0000C37BD465DF8047B704700BF00ED00E078
:105BD00090B58BB000AF012303220D2129482DF091
:105BE00031F83B461846FFF79BFF27482DF09AF8FF
:105BF000FB681C46FB689BB21846FFF763FF024632
:105C00003B69214621482DF01DF8214B214A3721BF
:105C100021482DF017F80CF023F9034619461F48C8
:105C20002DF010F83B681E4A82FB03129214DB171A
:105C3000D31A19461B482DF005F87B68184A82FBD9
:105C400003129214DB17D31A194617482CF0FAFFE7
:105C5000164B5B697B627B6A03F400331846FFF7DF
:105C60004BFF04467B6A03F480331846FFF744FF7A
:105C700003461A4621460E482CF0E4FF00BF2C379D
:105C8000BD4690BDCC5E0334EC5E03340C5F033440
:105C9000405F0334485F0334505F0334705F033464
:105CA00083DE1B438C5F0334A85F033400ED00E008
:105CB000C45F033480B400AF064BD3F8043E054AFA
:105CC00043F00103C2F8043E00BFBD465DF8047B0B
:105CD000704700BF003000E080B483B000AF786050
:105CE000044A7B68C2F8003C00BF0C37BD465DF833
:105CF000047B7047003000E080B485B000AF78606E
:105D000039607B681B6803F04053B3F1405F17D0E4
:105D1000B3F1405F17D8B3F1005F0ED0B3F1005F6D
:105D200011D8002B03D0B3F1805F03D00BE0002328
:105D3000FB730BE00123FB7308E00223FB7305E018
:105D40000323FB7302E00023FB7300BFFB7B9B007C
:105D50003A6813441A687B685B68B2FBF3F3184631
:105D60001437BD465DF8047B7047000080B59AB0DB
:105D700000AFF860B9607A603B6007F12403184611
:105D800014F0CCFA14F036FA78661DF09FFA034648
:105D90007B611DF0E1FA0346BB611DF023FB034666
:105DA000FB611DF065FB03463B62FB6AB3F1407F7C
:105DB00040D107F1140207F124032033114618469D
:105DC000FFF79AFF03462B4AA2FB03239A0CFB68BA
:105DD0001A6007F1140207F124032833114618460C
:105DE000FFF78AFF0346234AA2FB03239A0CBB68F2
:105DF0001A6007F1140207F12403303311461846E4
:105E0000FFF77AFF03461B4AA2FB03239A0C7B6829
:105E10001A6007F1140207F12403383311461846BB
:105E2000FFF76AFF0346134AA2FB03239A0C3B6861
:105E30001A601BE07B6E0F4AA2FB03239A0CFB68DF
:105E40001A607B6E0B4AA2FB03239A0CBB681A6094
:105E50007B6E084AA2FB03239A0C7B681A607B6E58
:105E6000044AA2FB03239A0C3B681A6000BF683700
:105E7000BD4680BD83DE1B4380B586B000AF786031
:105E800040237B6140233B614023FB604023BB6098
:105E900007F1140307F1100207F10C0107F10800E4
:105EA000FFF764FF7B6800221A603A697B6804335D
:105EB000094901FB02F21A607A697B6808330649D6
:105EC00001FB02F21A607B680C3300221A6000BFEB
:105ED0001837BD4680BD00BF40420F0080B500AFFF
